:100000000C942A000C9434000C9434000C943400AA
:100010000C9434000C9434000C9434000C94340090
:100020000C9434000C9434000C9434000C94340080
:100030000C9434000C9434000C9434000C94340070
:100040000C9434000C9434000C9434000C94340060
:100050000C94340011241FBECFE5D8E0DEBFCDBF25
:100060000E944B000C94A9000C940000DF93CF93E6
:10007000CDB7DEB7EAE3F0E08FEF8083EBE3F0E0AB
:100080001082A4E3B0E0E4E3F0E080818E7F8C9303
:10009000CF91DF910895DF93CF9300D0CDB7DEB736
:1000A0000E9436001A8281E08983E3E3F0E08081D8
:1000B000882F90E0817090708823B9F38A8188300E
:1000C00019F4198287E08A838A818F3F19F481E0CD
:1000D00089831A8289818823C9F0ABE3B0E0EBE31E
:1000E000F0E08081482F8A81282F332727FD309523
:1000F00081E090E0022E02C0880F991F0A94E2F777
:10010000842B8C938A818F5F8A8319C0ABE3B0E024
:10011000EBE3F0E08081482F8A81282F332727FDE9
:10012000309581E090E0022E02C0880F991F0A945A
:10013000E2F7809584238C938A8181508A83E3E35C
:10014000F0E08081882F90E0817090708823B9F76B
:06015000ACCFF894FFCFD4
:00000001FF
