:020000040800F2
:10000000002800202502000875020008750200087B
:100010007502000875020008750200080000000063
:100020000000000000000000000000007502000851
:100030007502000800000000750200087502000843
:1000400075020008750200087502000875020008B4
:100050007502000875020008F90100087502000821
:100060007502000875020008750200087502000894
:100070007502000875020008750200087502000884
:100080007502000875020008750200087502000874
:100090007502000875020008750200087502000864
:1000A0007502000875020008750200087502000854
:1000B0007502000875020008750200087502000844
:1000C0007502000875020008750200087502000834
:1000D0007502000875020008750200087502000824
:1000E0007502000875020008000000007502000893
:1000F0007502000875020008750200087502000804
:1001000075020008750200087502000875020008F3
:1001100075020008750200087502000875020008E3
:1001200075020008750200087502000875020008D3
:1001300010B5054C237833B9044B13B10448AFF321
:1001400000800123237010BD00000020000000008B
:10015000C002000808B5034B1BB103490348AFF3C5
:10016000008008BD0000000004000020C00200085C
:1001700080B400AF194B1B68184A43F004031360A6
:10018000164B1B68154A43F001031360144B1B68A0
:10019000134A43F004031360124B1B68114A23F403
:1001A000700313600F4B1B680E4A43F40013136077
:1001B0000D4B00221A600D4B1B680C4A43F00103E3
:1001C00013600B4B1B680A4A43F001031360094B91
:1001D0001B68084A43F040031360FEE71810024012
:1001E00000080140040801400800014000040140EB
:1001F0000804014000E100E080B400AF074B1B6839
:10020000064A83F400531360054B1B68044A43F00D
:100210000103136000BFBD4680BC70470C0801405D
:10022000140401400D488546AFF300800C480D4989
:100230000D4A002302E0D458C4500433C4188C4241
:10024000F9D30A4A0A4C002301E013600432A242A7
:10025000FBD300F011F8FFF78BFFFEE7002800202A
:100260000000002000000020E00200080000002044
:100270001C000020FEE7000070B500250C4E0D4C60
:10028000A41BA410A54209D100F01AF800250A4EBB
:100290000A4CA41BA410A54205D170BD56F8253008
:1002A00098470135EEE756F8253098470135F2E7D3
:1002B000D8020008D8020008D8020008DC020008B2
:1002C000F8B500BFF8BC08BC9E467047F8B500BF43
:0802D000F8BC08BC9E46704713
:0402D80055010008C4
:0402DC0031010008E4
:0400000508000225C8
:00000001FF
