:020000040800F2
:1000000000280020B10B0008010C0008010C0008BA
:10001000010C0008010C0008010C000800000000A1
:10002000000000000000000000000000010C0008BB
:10003000010C000800000000010C0008010C000881
:10004000010C0008010C0008010C0008010C00085C
:10005000010C0008010C0008010C0008010C00084C
:10006000010C0008010C0008010C0008010C00083C
:10007000010C0008010C0008010C0008010C00082C
:10008000010C0008010C0008010C0008010C00081C
:10009000010C0008010C0008010C0008010C00080C
:1000A000010C0008010C0008010C0008010C0008FC
:1000B000010C0008010C0008010C0008010C0008EC
:1000C000010C0008010C0008010C0008010C0008DC
:1000D000010C0008010C0008010C0008010C0008CC
:1000E000010C0008010C000800000000010C0008D1
:1000F000010C0008010C0008010C0008010C0008AC
:10010000010C0008010C0008010C0008010C00089B
:10011000010C0008010C0008010C0008010C00088B
:10012000010C0008010C0008010C0008010C00087B
:1001300010B5054C237833B9044B13B10448AFF321
:1001400000800123237010BD20000020000000006B
:100150004C0C000808B5034B1BB103490348AFF32F
:10016000008008BD00000000240000204C0C0008A6
:1001700080B483B000AF0346FB80FB88802B42D065
:10018000802B11DC082B36D0082B06DC022B2ED05E
:10019000042B2ED0012B28D047E0202B2FD0402B32
:1001A0002FD0102B29D040E0B3F5006F33D0B3F53A
:1001B000006F09DCB3F5007F29D0B3F5806F28D03C
:1001C000B3F5807F21D030E0B3F5005F27D0B3F5E1
:1001D000005F03DCB3F5805F1FD026E0B3F5804FEE
:1001E0001FD0B3F5004F1ED01FE000231EE00423F4
:1001F0001CE008231AE00C2318E0102316E0142357
:1002000014E0182312E01C2310E000230EE0042366
:100210000CE008230AE00C2308E0102306E0142376
:1002200004E0182302E01C2300E0002318460C37EA
:10023000BD4680BC7047000090B585B000AF7860C7
:1002400039603B681B88802B01D87B6801E07B68A4
:100250000433FB607B68DB683B681B881846FFF74C
:1002600087FF03461A460F239340DA43FB681B6857
:100270001A40FB681A600023FB723B689B78072BCF
:1002800000F28A8001A252F823F000BFAD020008FC
:10029000AD020008AD020008AD020008DF02000850
:1002A000DF02000813030008550300083B689B7831
:1002B0009B005AB23B68DB785BB213435BB2FB72C4
:1002C000FC7A3B681B881846FFF752FF034604FA86
:1002D00003F2FB681B681A43FB681A605CE03B682A
:1002E0009B78043B9B005AB23B68DB785BB21343BC
:1002F0005BB2FB72FC7A3B681B881846FFF738FF3D
:10030000034604FA03F2FB681B681A43FB681A6091
:1003100042E03B689B78043B9B005AB23B68DB7829
:100320005BB213435BB2FB72FC7A3B681B881846D6
:10033000FFF71EFF034604FA03F2FB681B681A432B
:10034000FB681A607B68DB683A6812881A437B682E
:10035000DA6021E03B689B78053B9B005AB23B6822
:10036000DB785BB213435BB2FB72FC7A3B681B88A1
:100370001846FFF7FDFE034604FA03F2FB681B680C
:100380001A43FB681A607B68DB683A681288D243BC
:100390001A407B68DA6000BF00BF1437BD4690BDCD
:1003A00080B483B000AF78600B467B807B689A682E
:1003B0007B881340002B01D0012300E00023184666
:1003C0000C37BD4680BC704780B483B000AF786006
:1003D0000B467B8013467B707B78002B06D07B68B6
:1003E000DA687B881A437B68DA6006E07B68DA6843
:1003F0007B88DB431A407B68DA6000BF0C37BD4660
:1004000080BC704780B483B000AF78600B467B80BF
:100410007A887B68DA6000BF0C37BD4680BC7047C5
:1004200080B584B000AF7860084611461A4603468E
:100430007B800B467B7013463B707B88BB817B784F
:10044000BB733B78FB7307F10C0319467868FFF721
:10045000F3FE00BF1037BD4680BD000080B582B0FE
:1004600000AF00237B6014E00F4A7B6832F8131062
:10047000012300220D48FFF7D3FF0D4A7B6832F8B5
:100480001310012300220948FFF7CAFF7B680133DC
:100490007B607B68032BE7DDFF210448FFF7B2FF99
:1004A00000BF0837BD4680BD00000020000C0140A1
:1004B0000800002080B584B000AF0023FB6045E059
:1004C0000023BB600BE0254ABB6832F813300122E1
:1004D00019462348FFF778FFBB680133BB60BB6850
:1004E000032BF0DD1D4AFB6832F813300022194659
:1004F0001B48FFF769FF00237B6021E0194A7B68F6
:1005000032F8133019461648FFF74AFF0346002B0E
:1005100013D100BF134A7B6832F8133019461048D4
:10052000FFF73EFF0346002BF4D00F4A7B689B0089
:100530001A44FB6813441B780CE07B6801337B6032
:100540007B68032BDADDFB680133FB60FB68032B60
:10055000B6DD452318461037BD4680BD0800002093
:10056000000C0140000000201000002080B485B085
:1005700000AF78600023FB600BE00023BB6002E06B
:10058000BB680133BB60BB68FE2BF9D9FB68013344
:10059000FB60FA687B689A42EFD300BF1437BD4610
:1005A00080BC704780B500AF1420FFF7DFFF012348
:1005B000002220212848FFF733FF012300221021C9
:1005C0002548FFF72DFF0123002240212248FFF795
:1005D00027FF002220212048FFF7F6FE00221021ED
:1005E0001D48FFF7F1FE002240211B48FFF7ECFEFB
:1005F0001420FFF7BBFF00F0D3F8012300220121F4
:100600001548FFF70DFF0123002202211248FFF7D2
:1006100007FF0123002204210F48FFF701FF0123F8
:10062000002208210C48FFF7FBFE2820FFF79EFF61
:10063000022000F013F8282000F010F82820FFF71F
:1006400095FF062000F00AF8802000F007F80F2040
:1006500000F004F800BF80BD0008014080B582B002
:1006600000AF0346FB71FB7903F01003002B05D0AC
:10067000012201214948FFF7A7FE04E000220121E1
:100680004648FFF7A1FEFB7903F02003002B05D0BD
:10069000012202214148FFF797FE04E000220221D7
:1006A0003E48FFF791FEFB7903F04003002B05D095
:1006B000012204213948FFF787FE04E000220421CB
:1006C0003648FFF781FE97F90730002B05DA012243
:1006D00008213248FFF778FE04E0002208212F4865
:1006E000FFF772FE002220212C48FFF76DFE00224A
:1006F00010212A48FFF768FE00F08CF9FB7903F01F
:100700000103002B05D0012201212448FFF75CFEE4
:1007100004E0002201212148FFF756FEFB7903F097
:100720000203002B05D0012202211C48FFF74CFEDA
:1007300004E0002202211948FFF746FEFB7903F08E
:100740000403002B05D0012204211448FFF73CFECE
:1007500004E0002204211148FFF736FEFB7903F084
:100760000803002B05D0012208210C48FFF72CFEBE
:1007700004E0002208210948FFF726FE002220217C
:100780000648FFF721FE002210210448FFF71CFE57
:1007900000F040F900BF0837BD4680BD00080140A9
:1007A00080B500AF0021002000F008F80120FFF71D
:1007B00055FF8020FFF752FF00BF80BD80B582B09B
:1007C00000AF03460A46FB711346BB71114AFB7921
:1007D0001370114ABB791370FB79002B09D1BB79D7
:1007E0000F2B12D8BB79803BDBB21846FFF736FFE0
:1007F0000BE0FB79012B08D1BB790F2B05D8BB7916
:10080000403BDBB21846FFF729FF00BF0837BD4663
:1008100080BD00BF3D0000203C00002080B582B0BC
:1008200000AF0346FB71624B1B78102B09D1614B63
:100830001B78002B05D15F4B01221A705C4B002204
:100840001A705B4B1B78102B09D15A4B1B78012B6C
:1008500005D1584B00221A70554B00221A70554B87
:100860001A78534B1B7819461046FFF7A7FF504BD9
:100870001B780133DAB24E4B1A70FB7903F0100388
:10088000002B05D0012201214B48FFF79DFD04E01C
:10089000002201214848FFF797FDFB7903F0200370
:1008A000002B05D0012202214348FFF78DFD04E013
:1008B000002202214048FFF787FDFB7903F0400347
:1008C000002B05D0012204213B48FFF77DFD04E009
:1008D000002204213848FFF777FD97F90730002BF5
:1008E00005DA012208213448FFF76EFD04E00022FA
:1008F00008213148FFF768FD012210212E48FFF73B
:1009000063FD002220212C48FFF75EFD00F082F8F5
:10091000FB7903F00103002B05D0012201212648B9
:10092000FFF752FD04E0002201212348FFF74CFDB0
:10093000FB7903F00203002B05D0012202211E489F
:10094000FFF742FD04E0002202211B48FFF73CFDB7
:10095000FB7903F00403002B05D001220421164883
:10096000FFF732FD04E0002204211348FFF72CFDBD
:10097000FB7903F00803002B05D0012208210E4863
:10098000FFF722FD04E0002208210B48FFF71CFDC1
:10099000012210210848FFF717FD002220210648F8
:1009A000FFF712FD00F036F800BF0837BD4680BDE6
:1009B0003C0000203D0000200008014080B584B0CC
:1009C00000AF78600023FB731CE0FB7B0133FB73FB
:1009D0007B685A1C7A601B781846FFF71FFFFB7B69
:1009E000102B04D100210120FFF7E8FE0AE0FB7B79
:1009F000202B07D1FFF7D4FE00210020FFF7DEFEF9
:100A00000023FB737B681B78002BDED100BF1037FF
:100A1000BD4680BD80B500AF012240210748FFF7E9
:100A2000D3FC0220FFF7A2FD002240210348FFF77C
:100A3000CBFC0220FFF79AFD00BF80BD00080140FB
:100A400080B500AF0123002280211748FFF7E8FCA2
:100A5000012300224FF480711348FFF7E1FC0123CA
:100A600000224FF400711048FFF7DAFC0123002246
:100A70004FF480610C48FFF7D3FC012300224FF4B0
:100A800000610948FFF7CCFC012300224FF480519C
:100A90000548FFF7C5FC012300224FF4005102482E
:100AA000FFF7BEFC00BF80BD0008014080B400AF6E
:100AB000074B9B69064A43F004039361044B9B690F
:100AC000034A43F00803936100BFBD4680BC7047F2
:100AD0000010024080B588B000AFFFF7E7FFFFF7D6
:100AE000BDFCFFF75FFD2D48FFF768FF6420FFF7AF
:100AF0003DFDFFF755FEFFF7A3FF294A07F110035D
:100B000007CA03C31A800233120C1A70254A3B1D10
:100B100007CA03C31A800233120C1A700023BB7772
:100B20001BE0BB7F07F12002134413F8103C18466A
:100B3000FFF774FEBB7F07F12002134413F81C3C3F
:100B40009BB2DB019BB219461748FFF75BFC6420A0
:100B5000FFF70CFDBB7F0133BB77BB7F0A2BE0D9CE
:100B6000FFF71EFEFFF77AFC1048FFF727FF64200F
:100B7000FFF7FCFCFFF714FEFFF79CFC0346FB7736
:100B800003E0FFF797FC0346FB77FB7F452BF8D08C
:100B9000FB7F1846FFF742FEEEE700BF640C00083B
:100BA000780C0008840C000800080140680C00085C
:100BB0000D488546AFF300800C480D490D4A0023CF
:100BC00002E0D458C4500433C4188C42F9D30A4A02
:100BD0000A4C002301E013600432A242FBD300F070
:100BE00011F8FFF777FFFEE7002800200000002043
:100BF00020000020980C0008200000204000002069
:100C0000FEE7000070B500250C4E0D4CA41BA4108F
:100C1000A54209D100F01AF800250A4E0A4CA41B7F
:100C2000A410A54205D170BD56F82530984701356E
:100C3000EEE756F8253098470135F2E7900C0008AA
:100C4000900C0008900C0008940C0008F8B500BF48
:100C5000F8BC08BC9E467047F8B500BFF8BC08BC9D
:040C60009E467047F5
:100C6400484559004B657970616420697320726549
:100C740061647900303132333435363738393000F5
:0C0C840001792430581202190010010000
:040C90005501000802
:040C94003101000822
:100C9800080010002000400080000001000200044D
:100CA8003738392F3435362A3132332D43303D2BFE
:0400000508000BB133
:00000001FF
