:020000040800F2
:1000000000280020C510000815110008151100086F
:100010001511000815110008151100080000000056
:1000200000000000000000000000000015110008A2
:100030001511000800000000151100081511000836
:1000400015110008151100081511000815110008F8
:1000500015110008151100083D060008610600088A
:1000600085060008A9060008CD060008151100083D
:1000700015110008151100081511000815110008C8
:1000800015110008151100081511000815110008B8
:10009000151100081511000815110008F1060008D7
:1000A0001511000815110008151100081511000898
:1000B0001511000815110008151100081511000888
:1000C0001511000815110008151100081511000878
:1000D0001511000815110008151100081511000868
:1000E000990700081511000800000000151100080C
:1000F0001511000815110008151100081511000848
:100100001511000815110008151100081511000837
:100110001511000815110008151100081511000827
:100120001511000815110008151100081511000817
:1001300010B5054C237833B9044B13B10448AFF321
:1001400000800123237010BD00000020000000008B
:100150006011000808B5034B1BB103490348AFF316
:10016000008008BD000000000400002060110008AD
:1001700080B483B000AF0346FB80FB880F2B00F2F6
:10018000938001A252F823F0C9010008D7010008AA
:10019000E5010008F3010008010200080F02000851
:1001A0001D0200082B02000839020008470200085F
:1001B0005502000863020008710200087F0200086F
:1001C0008D0200089B0200083A4B1B68394A43F035
:1001D0004003136068E0374B1B68364A43F08003E6
:1001E000136061E0334B1B68324A43F48073136041
:1001F0005AE0304B1B682F4A43F40073136053E0FE
:100200002C4B1B682B4A43F4806313604CE0294B52
:100210001B68284A43F40003136045E0254B1B6824
:10022000244A43F4000313603EE0224B1B68214A3A
:1002300043F40003136037E01E4B1B681D4A43F470
:100240000003136030E01B4B1B681A4A43F40003A1
:10025000136029E0184B1B68174A43F4807313603E
:1002600022E0154B1B68144A43F4807313601BE0B3
:10027000114B1B68104A43F48073136014E00E4B5B
:100280001B680D4A43F4807313600DE00A4B1B6832
:10029000094A43F48073136006E0074B1B68064A63
:1002A00043F48073136000BF00BF0C37BD4680BCB1
:1002B000704700BF00E100E004E100E080B483B0DB
:1002C00000AF0346FB80FB880F2B00F2938001A256
:1002D00052F823F015030008230300083103000837
:1002E0003F0300084D0300085B0300086903000892
:1002F000770300088503000893030008A1030008A2
:10030000AF030008BD030008CB030008D9030008B1
:10031000E70300083A4B1B68394A43F04003136077
:1003200068E0374B1B68364A43F08003136061E096
:10033000334B1B68324A43F4807313605AE0304BEE
:100340001B682F4A43F40073136053E02C4B1B6867
:100350002B4A43F4806313604CE0294B1B68284A06
:1003600043F40003136045E0254B1B68244A43F423
:10037000000313603EE0224B1B68214A43F4000354
:10038000136037E01E4B1B681D4A43F400031360E3
:1003900030E01B4B1B681A4A43F40003136029E04A
:1003A000184B1B68174A43F48073136022E0154B07
:1003B0001B68144A43F4807313601BE0114B1B68E5
:1003C000104A43F48073136014E00E4B1B680D4A0F
:1003D00043F4807313600DE00A4B1B68094A43F431
:1003E0008073136006E0074B1B68064A43F4807372
:1003F000136000BF00BF0C37BD4680BC704700BF14
:1004000080E100E084E100E080B584B000AF786076
:100410007B6858687B681B890522194600F054FBED
:100420007B681B789B08FB737B681B7803F00303D6
:10043000DBB29B00BB73634AFB7B023352F8232081
:10044000BB7B0F2101FA03F3DB4318465D49FB7BBD
:100450000240023341F823205A4AFB7B023352F810
:1004600023207B685B6858498B4216D07B685B68A9
:1004700056498B420FD07B685B6855498B4208D048
:100480007B685B6853498B4201D1032306E000235C
:1004900004E0022302E0012300E00023B97B8B404B
:1004A00018464849FB7B0243023341F823204A4B5C
:1004B0009B687A681278114601228A40D24311461D
:1004C000454A0B409360444BDB687A6812781146CA
:1004D00001228A40D24311463F4A0B40D3607B68D9
:1004E0001B7B002B0BD13C4B9B687A681278114622
:1004F00001228A401146384A0B43936029E07B6809
:100500001B7B012B0BD1344BDB687A6812781146C8
:1005100001228A401146304A0B43D36019E07B68C0
:100520001B7B022B15D12C4B9B687A6812781146E5
:1005300001228A401146284A0B439360264BDB6810
:100540007A681278114601228A401146224A0B43EA
:10055000D3607B681B7819467B681B691F4A42F889
:1005600021307B685B7B012B11D11B4B1B687A68A8
:100570001278114601228A401146174A0B43136034
:100580007B681B789BB21846FFF7F2FD15E07B688D
:100590005B7B002B11D1104B1B687A6812781146D7
:1005A00001228A40D24311460B4A0B4013607B68FC
:1005B0001B789BB21846FFF781FE00BF1037BD467F
:1005C00080BD00BF0000014000080140000C014058
:1005D00000100140001401400004014020000020F0
:1005E00080B582B000AF78607868FFF70DFF00BF7C
:1005F0000837BD4680BD80B58AB000AFF860B960ED
:1006000011461A460B46FB711346BB71BA6807F1D7
:10061000140307CA83E80700BB7987F820303B6BD7
:100620007B62FB7987F8213007F114031846FFF746
:10063000D7FF00BF2837BD4680BD000080B500AFA2
:10064000054B5B69044A43F001035361034B1B688C
:10065000984700BF80BD00BF00040140200000207B
:1006600080B500AF054B5B69044A43F00203536158
:10067000034B5B68984700BF80BD00BF000401408A
:100680002000002080B500AF054B5B69044A43F0B1
:1006900004035361034B9B68984700BF80BD00BFB4
:1006A000000401402000002080B500AF054B5B69CD
:1006B000044A43F008035361034BDB68984700BFCB
:1006C00080BD00BF000401402000002080B500AFC5
:1006D000054B5B69044A43F010035361034B1B69EC
:1006E000984700BF80BD00BF0004014020000020EB
:1006F00080B500AF264B5B6903F02003002B08D0C8
:10070000234B5B69224A43F020035361214B5B6911
:1007100098471F4B5B6903F04003002B08D01C4B2C
:100720005B691B4A43F0400353611A4B9B6998472E
:10073000174B5B6903F08003002B08D0144B5B69F7
:10074000134A43F080035361124BDB699847104B07
:100750005B6903F48073002B08D00D4B5B690C4A76
:1007600043F4807353610B4B1B6A9847084B5B69DA
:1007700003F40073002B08D0054B5B69044A43F473
:1007800000735361034B5B6A984700BF80BD00BF95
:10079000000401402000002080B500AF2D4B5B69B4
:1007A00003F48063002B08D02A4B5B69294A43F489
:1007B00080635361284B9B6A9847264B5B6903F41F
:1007C0000063002B08D0234B5B69224A43F400638B
:1007D0005361214BDB6A98471E4B5B6903F48053DE
:1007E000002B08D01B4B5B691A4A43F480535361BA
:1007F000194B1B6B9847174B5B6903F40053002B95
:1008000008D0144B5B69134A43F400535361124BF5
:100810005B6B98470F4B5B6903F48043002B08D058
:100820000C4B5B690B4A43F4804353610A4B9B6B4F
:100830009847084B5B6903F40043002B08D0054B35
:100840005B69044A43F400435361034BDB6B9847F5
:1008500000BF80BD000401402000002080B483B0B0
:1008600000AF0346FB80FB88802B42D0802B11DC3D
:10087000082B36D0082B06DC022B2ED0042B2ED0D2
:10088000012B28D047E0202B2FD0402B2FD0102B2E
:1008900029D040E0B3F5006F33D0B3F5006F09DC29
:1008A000B3F5007F29D0B3F5806F28D0B3F5807FF2
:1008B00021D030E0B3F5005F27D0B3F5005F03DC53
:1008C000B3F5805F1FD026E0B3F5804F1FD0B3F59E
:1008D000004F1ED01FE000231EE004231CE008236D
:1008E0001AE00C2318E0102316E0142314E0182358
:1008F00012E01C2310E000230EE004230CE0082388
:100900000AE00C2308E0102306E0142304E0182377
:1009100002E01C2300E0002318460C37BD4680BCD3
:100920007047000090B585B000AF786039603B68D3
:100930001B88802B01D87B6801E07B680433FB6057
:100940007B68DB683B681B881846FFF787FF034618
:100950001A460F239340DA43FB681B681A40FB6872
:100960001A600023FB723B689B78072B00F28A8099
:1009700001A252F823F000BF990900089909000864
:100980009909000899090008CB090008CB0900085B
:10099000FF090008410A00083B689B789B005AB297
:1009A0003B68DB785BB213435BB2FB72FC7A3B685B
:1009B0001B881846FFF752FF034604FA03F2FB6850
:1009C0001B681A43FB681A605CE03B689B78043B39
:1009D0009B005AB23B68DB785BB213435BB2FB729D
:1009E000FC7A3B681B881846FFF738FF034604FA79
:1009F00003F2FB681B681A43FB681A6042E03B681D
:100A00009B78043B9B005AB23B68DB785BB2134394
:100A10005BB2FB72FC7A3B681B881846FFF71EFF2F
:100A2000034604FA03F2FB681B681A43FB681A606A
:100A30007B68DB683A6812881A437B68DA6021E0D9
:100A40003B689B78053B9B005AB23B68DB785BB206
:100A500013435BB2FB72FC7A3B681B881846FFF7B6
:100A6000FDFE034604FA03F2FB681B681A43FB68A9
:100A70001A607B68DB683A681288D2431A407B6848
:100A8000DA6000BF00BF1437BD4690BD80B483B0AC
:100A900000AF78600B467B8013467B707B78002B21
:100AA00006D07B68DA687B881A437B68DA6006E0E8
:100AB0007B68DA687B88DB431A407B68DA6000BFBA
:100AC0000C37BD4680BC704780B584B000AF7860FD
:100AD0000B467B8013467B707B88BB817B78BB7326
:100AE0000023FB7307F10C0319467868FFF71AFF20
:100AF00000BF1037BD4680BD80B584B000AF7860C0
:100B0000084611461A4603467B800B467B70134607
:100B10003B707B88BB817B78BB733B78FB7307F1B1
:100B20000C0319467868FFF7FDFE00BF1037BD467D
:100B300080BD80B485B000AF78600023FB600BE01F
:100B40000023BB6002E0BB680133BB60BB68FE2BC7
:100B5000F9D9FB680133FB60FA687B689A42EFD3EE
:100B600000BF1437BD4680BC7047000080B500AFA1
:100B70001420FFF7DEFF0123002220212848FFF781
:100B8000BBFF0123002210212548FFF7B5FF0123F9
:100B9000002240212248FFF7AFFF002220212048F9
:100BA000FFF774FF002210211D48FFF76FFF00229E
:100BB00040211B48FFF76AFF1420FFF7BAFF00F03F
:100BC000D3F80123002201211548FFF795FF0123E7
:100BD000002202211248FFF78FFF01230022042187
:100BE0000F48FFF789FF0123002208210C48FFF777
:100BF00083FF2820FFF79DFF022000F013F8282034
:100C000000F010F82820FFF794FF062000F00AF803
:100C1000802000F007F80F2000F004F800BF80BD2E
:100C20000008014080B582B000AF0346FB71FB793C
:100C300003F01003002B05D0012201214948FFF7E2
:100C400025FF04E0002201214648FFF71FFFFB7942
:100C500003F02003002B05D0012202214148FFF7B9
:100C600015FF04E0002202213E48FFF70FFFFB7949
:100C700003F04003002B05D0012204213948FFF77F
:100C800005FF04E0002204213648FFF7FFFE97F934
:100C90000730002B05DA012208213248FFF7F6FE63
:100CA00004E0002208212F48FFF7F0FE0022202157
:100CB0002C48FFF7EBFE002210212A48FFF7E6FE42
:100CC00000F08CF9FB7903F00103002B05D0012221
:100CD00001212448FFF7DAFE04E000220121214827
:100CE000FFF7D4FEFB7903F00203002B05D00122AD
:100CF00002211C48FFF7CAFE04E000220221194825
:100D0000FFF7C4FEFB7903F00403002B05D001229A
:100D100004211448FFF7BAFE04E000220421114820
:100D2000FFF7B4FEFB7903F00803002B05D0012286
:100D300008210C48FFF7AAFE04E000220821094818
:100D4000FFF7A4FE002220210648FFF79FFE0022A5
:100D500010210448FFF79AFE00F040F900BF083761
:100D6000BD4680BD0008014080B500AF00210020D5
:100D700000F008F80120FFF755FF8020FFF752FF31
:100D800000BF80BD80B582B000AF03460A46FB714C
:100D90001346BB71114AFB791370114ABB7913706A
:100DA000FB79002B09D1BB790F2B12D8BB79803B83
:100DB000DBB21846FFF736FF0BE0FB79012B08D1B9
:100DC000BB790F2B05D8BB79403BDBB21846FFF748
:100DD00029FF00BF0837BD4680BD00BF1D000020B1
:100DE0001C00002080B582B000AF0346FB71624B4F
:100DF0001B78102B09D1614B1B78002B05D15F4B61
:100E000001221A705C4B00221A705B4B1B78102B6E
:100E100009D15A4B1B78012B05D1584B00221A706F
:100E2000554B00221A70554B1A78534B1B781946B4
:100E30001046FFF7A7FF504B1B780133DAB24E4B39
:100E40001A70FB7903F01003002B05D00122012159
:100E50004B48FFF71BFE04E0002201214848FFF742
:100E600015FEFB7903F02003002B05D0012202219F
:100E70004348FFF70BFE04E0002202214048FFF741
:100E800005FEFB7903F04003002B05D0012204216D
:100E90003B48FFF7FBFD04E0002204213848FFF740
:100EA000F5FD97F90730002B05DA012208213448B7
:100EB000FFF7ECFD04E0002208213148FFF7E6FDD2
:100EC000012210212E48FFF7E1FD002220212C48AD
:100ED000FFF7DCFD00F082F8FB7903F00103002B43
:100EE00005D0012201212648FFF7D0FD04E00022B1
:100EF00001212348FFF7CAFDFB7903F00203002B11
:100F000005D0012202211E48FFF7C0FD04E00022A7
:100F100002211B48FFF7BAFDFB7903F00403002B05
:100F200005D0012204211648FFF7B0FD04E000229D
:100F300004211348FFF7AAFDFB7903F00803002BF7
:100F400005D0012208210E48FFF7A0FD04E0002291
:100F500008210B48FFF79AFD012210210848FFF7EE
:100F600095FD002220210648FFF790FD00F036F89D
:100F700000BF0837BD4680BD1C0000201D000020BA
:100F80000008014080B584B000AF78600023FB7397
:100F90001CE0FB7B0133FB737B685A1C7A601B7877
:100FA0001846FFF71FFFFB7B102B04D10021012007
:100FB000FFF7E8FE0AE0FB7B202B07D1FFF7D4FE0A
:100FC00000210020FFF7DEFE0023FB737B681B7807
:100FD000002BDED100BF1037BD4680BD80B500AF0D
:100FE000012240210748FFF751FD0220FFF7A1FD34
:100FF000002240210348FFF749FD0220FFF799FD39
:1010000000BF80BD0008014080B500AF0548FFF774
:10101000B9FFFA20FFF78DFD034B01221A7000BFC4
:1010200080BD00BF781100081E00002080B586B08A
:1010300002AF084A3B1D07CA83E80700391D064B6B
:101040000093002301220548FFF7D5FA00BF1037AF
:10105000BD4680BD8411000809100008000C014045
:1010600080B400AF0A4B9B69094A43F004039361C3
:10107000074B9B69064A43F008039361044B9B6945
:10108000034A43F00103936100BFBD4680BC704733
:101090000010024080B500AFFFF7E2FFFFF7C6FF88
:1010A000FFF764FD064B01221A70054B1B78DBB27B
:1010B000002BFAD0FFF758FE014B00221A70F4E71C
:1010C0001E0000200D488546AFF300800C480D49F6
:1010D0000D4A002302E0D458C4500433C4188C4293
:1010E000F9D30A4A0A4C002301E013600432A242F9
:1010F000FBD300F011F8FFF7CDFFFEE7002800203A
:1011000000000020000000209811000800000020CE
:101110005C000020FEE7000070B500250C4E0D4C71
:10112000A41BA410A54209D100F01AF800250A4E0C
:101130000A4CA41BA410A54205D170BD56F8253059
:1011400098470135EEE756F8253098470135F2E724
:1011500090110008901100089011000894110008E7
:10116000F8B500BFF8BC08BC9E467047F8B500BF94
:08117000F8BC08BC9E46704764
:101178005F5F7C2D2D7C5F5F000000000900000090
:08118800000C014000021700F9
:0411900055010008FD
:04119400310100081D
:04000005080010C51A
:00000001FF
