:020000040800F2
:10000000002800201D0500086D0500086D0500088A
:100010006D0500086D0500086D0500080000000072
:100020000000000000000000000000006D05000856
:100030006D050008000000006D0500086D05000852
:100040006D0500086D0500086D0500086D050008C8
:100050006D0500086D0500086D0500086D050008B8
:100060006D0500086D0500086D0500086D050008A8
:100070006D0500086D0500086D0500086D05000898
:100080006D0500086D0500086D0500086D05000888
:100090006D0500086D0500086D0500086D05000878
:1000A0006D0500086D0500086D0500086D05000868
:1000B0006D0500086D0500086D0500086D05000858
:1000C0006D0500086D0500086D0500086D05000848
:1000D0006D0500086D0500086D0500086D05000838
:1000E0006D0500086D050008000000006D050008A2
:1000F0006D0500086D0500086D0500086D05000818
:100100006D0500086D0500086D0500086D05000807
:100110006D0500086D0500086D0500086D050008F7
:100120006D0500086D0500086D0500086D050008E7
:1001300010B5054C237833B9044B13B10448AFF321
:1001400000800123237010BD00000020000000008B
:10015000B805000808B5034B1BB103490348AFF3CA
:10016000008008BD0000000004000020B805000861
:1001700080B485B000AF78600023FB600BE0002303
:10018000BB6002E0BB680133BB60BB68FE2BF9D9E2
:10019000FB680133FB60FA687B689A42EFD300BFCB
:1001A0001437BD4680BC704780B483B000AF0346AF
:1001B000FB80FB88802B42D0802B11DC082B36D0B3
:1001C000082B06DC022B2ED0042B2ED0012B28D09E
:1001D00047E0202B2FD0402B2FD0102B29D040E0F0
:1001E000B3F5006F33D0B3F5006F09DCB3F5007FD2
:1001F00029D0B3F5806F28D0B3F5807F21D030E0CF
:10020000B3F5005F27D0B3F5005F03DCB3F5805F83
:100210001FD026E0B3F5804F1FD0B3F5004F1ED09E
:100220001FE000231EE004231CE008231AE00C2337
:1002300018E0102316E0142314E0182312E01C2306
:1002400010E000230EE004230CE008230AE00C2356
:1002500008E0102306E0142304E0182302E01C2326
:1002600000E0002318460C37BD4680BC70470000F4
:1002700090B585B000AF786039603B681B88802BF3
:1002800001D87B6801E07B680433FB607B68DB6836
:100290003B681B881846FFF787FF03461A460F2363
:1002A0009340DA43FB681B681A40FB681A6000231E
:1002B000FB723B689B78072B00F28A8001A252F800
:1002C00023F000BFE5020008E5020008E50200088F
:1002D000E502000817030008170300084B03000895
:1002E0008D0300083B689B789B005AB23B68DB7823
:1002F0005BB213435BB2FB72FC7A3B681B88184607
:10030000FFF752FF034604FA03F2FB681B681A4327
:10031000FB681A605CE03B689B78043B9B005AB228
:100320003B68DB785BB213435BB2FB72FC7A3B68E1
:100330001B881846FFF738FF034604FA03F2FB68F0
:100340001B681A43FB681A6042E03B689B78043BD9
:100350009B005AB23B68DB785BB213435BB2FB7223
:10036000FC7A3B681B881846FFF71EFF034604FA19
:1003700003F2FB681B681A43FB681A607B68DB6842
:100380003A6812881A437B68DA6021E03B689B7800
:10039000053B9B005AB23B68DB785BB213435BB210
:1003A000FB72FC7A3B681B881846FFF7FDFE03468C
:1003B00004FA03F2FB681B681A43FB681A607B6847
:1003C000DB683A681288D2431A407B68DA6000BF63
:1003D00000BF1437BD4690BD80B483B000AF7860D5
:1003E0000B467B807B689A687B881340002B01D08A
:1003F000012300E0002318460C37BD4680BC70473F
:1004000080B483B000AF78600B467B807B68DA688D
:100410007B885A407B68DA6000BF0C37BD4680BCE1
:100420007047000080B400AF074B9B69064A43F059
:1004300004039361044B9B69034A43F008039361EF
:1004400000BFBD4680BC70470010024080B582B03E
:1004500000AF0223BB800523BB710023FB713B1D52
:1004600019461548FFF704FF4FF40053BB800523DE
:10047000BB710023FB713B1D19460F48FFF7F8FEC7
:100480000223BB800023BB710123FB713B1D194676
:100490000A48FFF7EDFE4FF40053BB800023BB7109
:1004A0000123FB713B1D19460448FFF7E1FE00BF25
:1004B0000837BD4680BD00BF00080140000C014068
:1004C00080B500AFFFF7AEFFFFF7C0FF0221114874
:1004D000FFF782FF0346002B0BD102210E48FFF7E6
:1004E0008FFF00BF02210B48FFF776FF0346002B6A
:1004F000F8D04FF400510748FFF76EFF0346012B79
:1005000004D14FF400510448FFF77AFF0120FFF7B0
:100510002FFEDBE700080140000C01400D48854636
:10052000AFF300800C480D490D4A002302E0D45877
:10053000C4500433C4188C42F9D30A4A0A4C00232D
:1005400001E013600432A242FBD300F011F8FFF780
:10055000B7FFFEE700280020000000200000002078
:10056000D8050008000000201C000020FEE7000065
:1005700070B500250C4E0D4CA41BA410A54209D14A
:1005800000F01AF800250A4E0A4CA41BA410A5423C
:1005900005D170BD56F8253098470135EEE756F87D
:1005A000253098470135F2E7D0050008D00500084E
:1005B000D0050008D4050008F8B500BFF8BC08BC99
:1005C0009E467047F8B500BFF8BC08BC9E46704711
:0405D00055010008C9
:0405D40031010008E9
:040000050800051DCD
:00000001FF
