:020000040800F2
:1000000000280020D1020008210300082103000875
:10001000210300082103000821030008000000005C
:1000200000000000000000000000000021030008A4
:10003000210300080000000021030008210300083C
:100040002103000821030008210300082103000800
:1000500021030008210300082103000821030008F0
:1000600021030008210300082103000821030008E0
:1000700021030008210300082103000821030008D0
:1000800021030008210300082103000821030008C0
:1000900021030008210300082103000821030008B0
:1000A00021030008210300082103000821030008A0
:1000B0002103000821030008210300082103000890
:1000C0002103000821030008210300082103000880
:1000D0002103000821030008210300082103000870
:1000E000210300082103000800000000210300088C
:1000F0002103000821030008210300082103000850
:10010000210300082103000821030008210300083F
:10011000210300082103000821030008210300082F
:10012000210300082103000821030008210300081F
:1001300010B5054C237833B9044B13B10448AFF321
:1001400000800123237010BD00000020000000008B
:100150006C03000808B5034B1BB103490348AFF318
:10016000008008BD00000000040000206C030008AF
:1001700080B400AF044B1B68034A43F00C031360C8
:1001800000BFBD4680BC70471810024080B400AF6D
:10019000254B1B68244A23F0C0031360224B1B68C5
:1001A000214A23F0200313601F4B1B681E4A43F0B3
:1001B000100313601D4B1B681C4A23F4400313609B
:1001C0001A4B1B68194A23F400131360174B1B6862
:1001D000164A43F480131360154B1B68144A23F02E
:1001E00030031360124B1B68114A23F08003136025
:1001F0000F4B1B680E4A43F0400313600D4B1B6806
:100200000C4A23F4401313600A4B1B68094A23F479
:1002100000031360074B1B68064A43F48003136016
:1002200000BFBD4680BC7047000C0140040C01407B
:10023000000801400408014080B485B000AF786038
:100240000023FB600CE00023BB6002E0BB680133CD
:10025000BB60BB68B3F57A7FF8DBFB680133FB60FA
:10026000FA687B689A42EEDB00BF1437BD4680BC5B
:100270007047000080B500AFFFF77AFFFFF786FFF9
:10028000114B1B6803F00203002B0CD10F4B1B68B2
:100290000E4A83F00203136000BF0B4B1B6803F090
:1002A0000203002BF9D0084B1B6803F40053002B0A
:1002B00005D0064B1B68054A83F4005313600120E8
:1002C000FFF7BAFFDCE700BF080801400C0C014053
:1002D0000D488546AFF300800C480D490D4A0023B8
:1002E00002E0D458C4500433C4188C42F9D30A4AEB
:1002F0000A4C002301E013600432A242FBD300F059
:1003000011F8FFF7B7FFFEE70028002000000020EB
:10031000000000208C030008000000201C000020CA
:10032000FEE7000070B500250C4E0D4CA41BA41078
:10033000A54209D100F01AF800250A4E0A4CA41B68
:10034000A410A54205D170BD56F825309847013557
:10035000EEE756F8253098470135F2E784030008A8
:10036000840300088403000888030008F8B500BF70
:10037000F8BC08BC9E467047F8B500BFF8BC08BC86
:040380009E467047DE
:040384005501000817
:040388003101000837
:04000005080002D11C
:00000001FF
